:020000040800F2
:10000000084E002011200008FD200008FF200008F5
:1000100003210008072100080B2100080000000050
:100020000000000000000000000000000F21000898
:1000300011210008000000002F39000815210008D8
:100040002B2000082B2000082B2000082B20000864
:100050002B2000082B2000082B2000082B20000854
:100060002B2000082B2000082B2000082B20000844
:100070002B2000082B2000082B2000082B20000834
:100080002B2000082B2000082B2000082B20000824
:100090002B2000082B2000082B2000082B20000814
:1000A0002B2000082B2000082B2000082B20000804
:1000B0002B2000082B2000082B2000082B200008F4
:1000C0002B2000082B2000082B2000082B200008E4
:1000D0002B2000082B2000082B2000082B200008D4
:1000E0002B2000082B2000082B2000082B200008C4
:1000F0002B2000082B2000082B2000082B200008B4
:100100002B2000082B2000082B2000082B200008A3
:100110002B2000082B2000083D2200082B2000087F
:100120002B2000082B2000082B2000082B20000883
:1001300000F002F800F06BF80AA090E8000C82448E
:100140008344AAF10107DA4501D100F060F8AFF26B
:10015000090EBAE80F0013F0010F18BFFB1A43F0A5
:1001600001031847A8360100C83601000A444FF0C1
:10017000000C10F8013B13F0070408BF10F8014B06
:100180001D1108BF10F8015B641E05D010F8016B4B
:10019000641E01F8016BF9D113F0080F1EBF10F8AF
:1001A000014BAD1C0C1B09D16D1E58BF01F801CBD2
:1001B000FAD505E014F8016B01F8016B6D1EF9D555
:1001C0009142D6D37047000000230024002500266A
:1001D000103A28BF78C1FBD8520728BF30C148BFAA
:1001E0000B607047642912F06B84732912F0D48776
:1001F000002070471FB512F05DFF040000200021B1
:1002000013F02CF8401C60601FBD10B510BD12F03B
:10021000F9FF1146FFF7EEFF01F055FF13F017F855
:1002200003B4FFF7F2FF03BC01F012FF31490143B1
:10023000314A1160704770B5002100230F22C47845
:100240000CB32D4C246804F4E064C4F5E064210A86
:10025000C1F10403CA40447804FA03F184781440DD
:1002600021430901254C0678A155047804F01F05A7
:100270000124AC4005786D114FF0E02606EB8505B2
:10028000C5F8004109E0047804F01F050124AC40E2
:100290001B4D0678761145F8264070BD194A0A4074
:1002A0000243154B1B1F1A60704739B1124A121DC9
:1002B00012680243104B1B1D1A6006E00E4A121D05
:1002C000126882430C4B1B1D1A607047042808D12A
:1002D0004FF0E021096941F004014FF0E022116183
:1002E00007E04FF0E021096921F004014FF0E0221E
:1002F000116170470000FA050CED00E000E400E039
:1003000080E100E080FFFF1F30B943F2DB014FF0D6
:10031000204242F8201005E043F2D2014FF0204283
:1003200042F820106FF07042411C4FF0204343F818
:10033000212011461A4602EB8002C2F804117047D0
:1003400010280AD118214FF0204211664021516631
:100350004FF0FC319166D16610E01821F84A116027
:100360004FF040014FF02042C2F884104FF0FC31B2
:10037000F44A11604FF02042C2F88C1070471820E8
:10038000F14908604FF000004FF02041C1F8A4008F
:100390004FF0FC30ED49086001F10401086001F103
:1003A000040108607047D0E901121143C26811438B
:1003B000026911434269114382691143C2691143C1
:1003C000026A1143426A1143826A1143C26A1143AD
:1003D000026B11434FF02043026843F822108168FA
:1003E000082908D11A46016852F8211041F040014D
:1003F000026843F82210416B0968426B526841EA77
:100400000211426B926841EA0221426B928941EAF1
:100410000241426B128A41EA0251426B127D41EA6B
:100420000261426B926911430268521C4FF02043F3
:1004300043F82210C16AB1F5804F1AD1816B096867
:10044000826B526841EA0211826B926841EA022192
:10045000826B128A41EA0251826B127D41EA02618B
:10046000826B92691143026803EB8202C2F80411A5
:1004700008E06FF070414FF02043026803EB820206
:10048000C2F80411704730B50021002200234468EF
:1004900044F0080485682C43C5682C4305692C4347
:1004A000456944EA4524856944EA4531C4692468BC
:1004B000C5696D6844EA0524C5692D8944EA054487
:1004C000C5692D7B44EA0562046A2468056A6D6883
:1004D00044EA0524056A2D8944EA0544056A2D7B12
:1004E00044EA05630468102C05D14FF020442166CE
:1004F000A266E36607E0924C21604FF02044C4F806
:100500008820934C236030BD016841F0100142689F
:1005100041EA4221826841EA42318B4A1160C16856
:100520000968C268526841EA0221C268128941EA38
:100530000241C268127B41EA0261844A116001698A
:1005400009680269526841EA02210269128941EA96
:1005500002410269127B41EA02617E4A11604169EF
:1005600009684269526841EA02214269128941EAF6
:1005700002414269127B41EA02614FF02042C2F817
:10058000B0107047002101600221416000218160AC
:10059000C160016141618161C16101624FF48051BB
:1005A0004162490081620021C16201630F21426BF7
:1005B0001160426B5160FF21426B91600F21426BD1
:1005C000D160426B1161426B51610021426B9161BC
:1005D0000F21826B1160826B5160FF21826B9160F1
:1005E0000F21826BD160826B1161826B516100219E
:1005F000826B916170471021016000214160816030
:10060000C160016141618161FC21C2691160C269FF
:100610005160C2699160C269D160026A1160026A68
:100620005160026A9160026AD160704700210160E6
:1006300041608160FC21C2681160C2685160C2687B
:100640009160C268D16002691160026951600269FB
:1006500091600269D16042691160426951604269EA
:1006600091604269D160704751B14FF0204252F819
:10067000202042F001024FF0204343F8202009E0FF
:100680004FF0204252F82020334B1A404FF02043C5
:1006900043F82020704799B1102808D14FF020422C
:1006A000126E42F004024FF020431A661DE0244A05
:1006B000126842F004024FF02043C3F8802014E097
:1006C000102809D14FF02042126E234BDB1E1A4036
:1006D0004FF020431A6608E0194A12681F4B02EADD
:1006E00003024FF02043C3F88020704740B1164901
:1006F000096841F004014FF02042C2F8A01008E060
:1007000011490968154A01EA02014FF02042C2F876
:10071000A010704799B1102808D14FF02042126EF6
:1007200042F040024FF020431A662DE0044A12685E
:1007300042F040024FF02043C3F8802024E00FE055
:10074000800000A0880000A0A00000A0A80000A0D9
:100750008C0000A0AC0000A0FEFF0F00FBFF0F000C
:10076000102808D14FF02042126E684B1A404FF00B
:1007700020431A6608E0664A1268644B02EA0302E4
:100780004FF02043C3F88020704701460020102915
:1007900003D14FF02042506F01E05E4A106870476D
:1007A00010B5F2B1102807D14FF020435B6E0B4318
:1007B0004FF02044636632E0B0F5807F08D1564B9D
:1007C0001B6843EA01034FF02044C4F8843026E05C
:1007D000524B1B6843EA01034FF02044C4F8A43095
:1007E0001DE0102807D14FF020435B6E8B434FF084
:1007F0002044636613E0B0F5807F08D1464B1B6848
:1008000023EA01034FF02044C4F8843007E0434B4F
:100810001B6823EA01034FF02044C4F8A43010BD44
:1008200010B5024600200023102A03D14FF02044C7
:10083000636E07E0B2F5807F02D1374C236801E098
:10084000364C23680B4201D0012000E0002010BD8F
:10085000102807D14FF02042526E8A434FF02043B8
:100860005A6613E0B0F5807F08D12B4A126822EA5D
:1008700001024FF02043C3F8842007E0274A1268A2
:1008800022EA01024FF02043C3F8A420704770B55C
:1008900002460020002300240025102A03D14FF037
:1008A0002046736E07E0B2F5807F02D11A4E33689E
:1008B00001E01A4E336803EA010403EAD10514B1DA
:1008C0000DB1012000E0002070BD102808D14FF0CC
:1008D0002042526E22EAD1024FF020435A6613E0C2
:1008E000B0F5807F08D10C4A126822EAD1024FF09D
:1008F0002043C3F8842007E0084A126822EAD102A4
:100900004FF02043C3F8A42070470000BFFF0F0042
:10091000800000A0940000A0840000A0A40000A01B
:1009200010B50446CA48844208D10121042000F0D1
:1009300027FB0021042000F023FB46E0C548844249
:1009400008D10121082000F01BFB0021082000F045
:1009500017FB3AE0C048844208D10121102000F082
:100960000FFB0021102000F00BFB2EE0BB4884425F
:1009700008D10121202000F003FB0021202000F0FD
:10098000FFFA22E0B648844208D10121402000F05D
:10099000F7FA0021402000F0F3FA16E0B148844253
:1009A00008D10121802000F0EBFA0021802000F026
:1009B000E7FA0AE0AC48844207D10121801500F033
:1009C000DFFA0021A01500F0DBFA10BD10B50121FF
:1009D000084600F0D5FA0021012000F0D1FA10BD40
:1009E0002DE9F041024600250026002000230024C6
:1009F000002791F803C00CF00F0591F803C01CF01C
:100A0000100F03D091F802C04CEA050591F800C020
:100A1000BCF1000F31D0146800202BE04FF0010C26
:100A20000CFA00F3B1F800C00CEA03069E4220D194
:100A300083004FF00F0C0CFA03F7BC4305FA03FCDC
:100A40004CEA040491F803C0BCF1280F06D14FF022
:100A5000010C0CFA00FCC2F814C00AE091F803C0C3
:100A6000BCF1480F05D14FF0010C0CFA00FCC2F8A4
:100A700010C0401C0828D1D31460B1F800C0BCF1EC
:100A8000FF0F34DD546800202EE000F1080C4FF019
:100A9000010808FA0CF3B1F800C00CEA03069E4204
:100AA00021D183004FF00F0C0CFA03F7BC4305FA79
:100AB00003FC4CEA040491F803C0BCF1280F05D1F3
:100AC00000F1080C08FA0CF8C2F8148091F803C081
:100AD000BCF1480F07D100F1080C4FF0010808FAEB
:100AE0000CF8C2F81080401C0828CED35460BDE832
:100AF000F0814FF6FF710180022181700421C170E5
:100B000070470246002093680B4201D0012000E0AC
:100B1000002070470146886880B270470246002076
:100B2000D3680B4201D0012000E00020704701464D
:100B3000C86880B2704701617047416170470AB16F
:100B4000016100E041617047C16070474FF480323D
:100B50000A438261816182618269826970470246CB
:100B60000020424B18684FF68073184040EA02108C
:100B700008433E4B186070473D49C8617047F0B567
:100B80000A46002300240021002500F00046B6F1AB
:100B9000004F02D1354EF16901E0344E7168C0F367
:100BA000034583B200F44016B6F5401F08D121F08A
:100BB00070612E4E766826F070662C4F7E6012E0D3
:100BC00000F48016B6F5801F06D1032606FA05F458
:100BD000A14341F0706106E0460D360103FA06F6C6
:100BE000B14341F0706122B1460D360103FA06F6B9
:100BF000314300F00046B6F1004F02D11B4EF161C7
:100C000001E01A4E7160F0BD30B500228B071C0F59
:100C10000F2303FA04F2154B08338C1053F82430D9
:100C20009343124C08348D1044F8253023468C1021
:100C300053F824308C07240F00FA04F423430B4CA0
:100C400008348D1044F8253030BD0A4908607047DB
:100C500000080140000C0140001001400014014058
:100C600000180140001C014000200140000001402C
:100C700000002042DC002042DD48006840F0010016
:100C8000DB49086008464068DA490840D8494860AE
:100C900008460068D8490840D549086008460068F9
:100CA00020F4802008600846406820F4FE00486078
:100CB0004FF41F0088607047CD49096821F48031E6
:100CC000CB4A11601146096821F480211160B0F50A
:100CD000803F03D0B0F5802F0ED106E0C4490968EB
:100CE00041F48031C24A116007E0C149096841F40A
:100CF000A021BF4A116000E000BF00BF704710B5DF
:100D000001460022002300204A11012A02D1B84CDA
:100D1000236806E0022A02D1B54C236A01E0B44CF4
:100D2000636A01F01F02012494401C4201D001209B
:100D300000E0002010BD38B5002000900024002500
:100D400000BF3120FFF7DBFF05460098401C0090F4
:100D50000098B0F5A06F01D0002DF2D03120FFF740
:100D6000CEFF08B1012400E00024204638BD014632
:100D700000209F4A106820F0F80040EAC10010608F
:100D800070479E490860704702460020984B58689B
:100D900020F47C1042EA01031843954B58607047D9
:100DA00096490866704701460020914A506820F035
:100DB00003000843506070478D48406800F00C0005
:100DC0007047014600208A4A506820F0F00008432E
:100DD0005060704701460020854A506820F4E0606A
:100DE00008435060704701460020814A506820F453
:100DF000605040EAC1005060704729B17C4A527A85
:100E000002437B4B5A7204E0794A527A8243784B10
:100E10005A7270477A490860704701460020744A48
:100E2000506820F440400843506070470021754AE4
:100E300011706F4A82F82010012802D0042808D1CE
:100E400003E001216F4A117004E005216D4A117021
:100E500000E000BF00BF70476B49086070476449FD
:100E6000096A0143624A1162704767494439086060
:100E7000704730B500210022002400235C4D6D68CE
:100E800005F00C0121B1042905D0082923D105E082
:100E90005E4D056022E05D4D05601FE0544D6D68BC
:100EA00005F47012524D6D6805F48034022505EB8F
:100EB00092421CB9564D554305600BE04C4D6D6890
:100EC00015F4003F03D0524D5543056002E04F4DED
:100ED0005543056002E04D4D056000BF00BF444D25
:100EE0006D6805F0F00109094A4D6B5C0568DD404D
:100EF00045603F4D6D6805F4E061090A454D6B5C46
:100F00004568DD4085603A4D6D6805F46051C90A59
:100F1000404D6B5C4568DD40C560354D6D6805F43E
:100F20004041890B3C4D6B5CC568B5FBF3F5056131
:100F300030BD29B12E4A526902432D4B5A6104E05B
:100F40002B4A526982432A4B5A61704729B1284A79
:100F500092690243264B9A6104E0254A92698243D2
:100F6000234B9A61704729B1214AD2690243204B31
:100F7000DA6104E01E4AD26982431D4BDA61704790
:100F800029B11B4AD2680243194BDA6004E0184ABF
:100F9000D2688243164BDA60704729B1144A12694D
:100FA0000243134B1A6104E0114A12698243104B49
:100FB0001A61704714494039086070470F49C86486
:100FC00070470B49C87170470948406A40F080700B
:100FD00007494862704701460020054A92680A4264
:100FE00001D0012000E0002070470149887270475D
:100FF000001002400000FFF8FFFFF6FE0000424232
:10100000D8004242201002408004424200127A007E
:1010100000093D00000000201000002010B504462B
:10102000FE48844208D10121C014FFF7A9FF002126
:10103000E014FFF7A5FFC4E0B4F1804F08D101210F
:101040000846FFF7AAFF00210120FFF7A6FFB8E03E
:10105000F348844208D101210220FFF79EFF0021BE
:101060000220FFF79AFFACE0EE48844208D101214C
:101070000420FFF792FF00210420FFF78EFFA0E07D
:10108000E948844208D101210820FFF786FF0021AA
:101090000820FFF782FF94E0E448844208D1012150
:1010A0001020FFF77AFF00211020FFF776FF88E07D
:1010B000DF48844208D101212020FFF76EFF002184
:1010C0002020FFF76AFF7CE0DA48844208D1012142
:1010D0004014FFF755FF00216014FFF751FF70E047
:1010E000D548844209D10121C804FFF749FF0021F6
:1010F0004FF40020FFF744FF63E0D048844209D159
:1011000001210805FFF73CFF00214FF48010FFF795
:1011100037FF56E0CA48844209D101214805FFF74C
:101120002FFF00214FF40010FFF72AFF49E0C548C8
:10113000844208D101214020FFF72FFF00214020E9
:10114000FFF72BFF3DE0C048844208D101218020F9
:10115000FFF723FF00218020FFF71FFF31E0BB488E
:10116000844208D101218015FFF717FF0021A01547
:10117000FFF713FF25E0B648844209D10121080496
:10118000FFF7FEFE00214FF48030FFF7F9FE18E074
:10119000B048844209D101214804FFF7F1FE002143
:1011A0004FF40030FFF7ECFE0BE0AB48844208D16F
:1011B00001218804FFF7E4FE00214FF48020FFF7AF
:1011C000DFFE10BD00220288944B98420ED0994B4E
:1011D00098420BD0B0F1804F08D0914B984205D087
:1011E000904B984202D0904B984204D14FF68F73A7
:1011F0001A404B881A438D4B984207D08C4B98422B
:1012000004D04FF6FF431A40CB881A4302808B88E4
:1012100083850B880385814B98420BD0854B984280
:1012200008D08B4B984205D08A4B984202D08A4B0B
:10123000984201D10B7A038601238382704770B5EF
:10124000002400220023058C4FF6FE7635400584ED
:10125000028C8388048B4FF68F752C40B51E2C4072
:101260000D882C43751E2A400D892A434D882A4338
:101270006A4DA8420BD06F4DA84208D0744DA842C9
:1012800005D0744DA84202D0734DA84213D14FF639
:10129000F7752A404D892A434FF6FB752A408D8801
:1012A0002A434FF6FF652B404FF6FF552B408D89A3
:1012B0002B43CD892B4383800483CD88858602848C
:1012C00070BD70B5002400220023058C4FF6EF7628
:1012D00035400584028C8388048B48F6FF752C40CA
:1012E0004FF6FF452C400D884FF6FF7606EA0525A0
:1012F0002C434FF6DF752A400D8906EA05152A436F
:101300004D8806EA05152A43444DA84202D0494DAE
:10131000A8421DD14FF67F752A404D894FF6FF76C2
:1013200006EA05152A434FF6BF752A408D8806EA5E
:1013300005152A434FF6FF352B404FF2FF752B4022
:101340008D8906EA85052B43CD8906EA85052B4361
:1013500083800483CD880587028470BD70B5002426
:1013600000220023058C4FF6FF6635400584028C71
:101370008388848B4FF68F752C404FF6FC752C407C
:101380000D882C434FF6FF552A400D894FF6FF7606
:1013900006EA05252A434D8806EA05252A431F4DFE
:1013A000A84202D0234DA8421DD14FF2FF752A401A
:1013B0004D894FF6FF7606EA05252A434FF6FF359D
:1013C0002A408D8806EA05252A434EF6FF752B40F4
:1013D0004DF6FF752B408D8906EA05152B43CD8907
:1013E00006EA05152B4383808483CD888587028494
:1013F00070BD70B5002200230024058C4EF6FF76E8
:1014000035400584038C8488828B48F6FF752A401A
:101410004FF6FF452A400D8820E00000002C0140D7
:101420000004004000080040000C00400010004094
:101430000014004000340140004C014000500140C5
:101440000054014000180040001C004000200040F3
:101450000040014000440140004801404FF6FF7643
:1014600006EA05252A434DF6FF752B400D8906EA4D
:1014700005352B434D8806EA05352B43FA4DA84226
:1014800002D0FA4DA84208D14BF6FF752C408D8949
:101490004FF6FF7606EA85152C4384808283CD883B
:1014A000A0F84050038470BD828B4FF2FF331A4086
:1014B0008283828B4FF6FF7303EA01231A438283F0
:1014C0007047F0B50C461546002200210026078C17
:1014D0004EF6FF7C07EA0C070784828B018C4FF6DF
:1014E000FF7707EA043640F6FF473A404FF6FF77AA
:1014F00007EA05273A434FF6FF7707EA03373A43EF
:10150000D94FB8420ED0D94FB8420BD0B0F1804F6E
:1015100008D0D74FB84205D0D64FB84202D0D64FE8
:10152000B84206D14DF6FF77394046F4805739432B
:1015300005E047F6FF57394044F48057394382832A
:101540000184F0BD828B4FF6F3731A408283828B45
:101550000A4382837047F0B50C46154600220021ED
:101560000026078C4FF6FF6C07EA0C070784828B76
:10157000018C4FF6FF7707EA04264FF60C773A40C6
:101580004FF6FF7707EA03172F433A43B64FB842A7
:101590000ED0B64FB8420BD0B0F1804F08D0B44F48
:1015A000B84205D0B34FB84202D0B34FB84206D1CB
:1015B0004FF6FF57394046F48077394305E04FF244
:1015C000FF57394044F48077394382830184F0BD6A
:1015D000028B4FF2FF331A400283028B4FF6FF73E8
:1015E00003EA01231A4302837047F0B50C461546FF
:1015F000002200210026078C4FF6EF7C07EA0C073B
:101600000784028B018C4FF6FF7707EA041640F639
:10161000FF473A404FF6FF7707EA03373A434FF662
:10162000FF7707EA05273A438F4FB8420ED08F4F16
:10163000B8420BD0B0F1804F08D08D4FB84205D0E2
:101640008C4FB84202D08C4FB84206D14FF6DF77AC
:10165000394046F01007394305E04FF65F773940CF
:1016600044F01007394302830184F0BD028B4FF62A
:10167000F3731A400283028B0A4302837047F0B56A
:101680000C46154600220021068C4FF6FE773E40A0
:101690000684028B018C4FF60C7632407E1C06EAE3
:1016A00003162E433243704EB0420ED06F4EB042FE
:1016B0000BD0B0F1804F08D06D4EB04205D06D4ECA
:1016C000B04202D06C4EB04206D14FF6FD763140AA
:1016D00044F00106314305E04FF6F576314044F021
:1016E0000106314302830184F0BD70B505460C4606
:1016F0005D4885420ED05D4885420BD0B5F1804FE4
:1017000008D05B48854205D05A48854202D05A48E5
:10171000854200D100E000BF208850B92389A2880B
:1017200061882846FFF7ABFFE1882846FFF79EFF58
:1017300025E0208804280AD12389A28861882846C8
:10174000FFF753FFE1882846FFF742FF17E02088A4
:1017500008280AD12389A28861882846FFF7FBFE62
:10176000E1882846FFF7EEFE09E02389A288618818
:101770002846FFF7A6FEE1882846FFF795FE70BDD4
:101780002DE9F04105460C4600260127608808B97E
:10179000022600E00026A088012801D1022700E0EF
:1017A00001272088A0B92389A28861882846FFF7ED
:1017B00066FFE1882846FFF759FF23893A463146FC
:1017C0002846FFF712FFE1882846FFF701FF13E0E4
:1017D0002389A28861882846FFF707FFE188284609
:1017E000FFF7F6FE23893A4631462846FFF747FFC2
:1017F000E1882846FFF73AFFBDE8F0810A884B8868
:101800001A438B881A43CB881A430B891A434B8996
:101810001A438B891A43A0F8442070474FF6FF7192
:10182000818000210180C1804180017270470021C8
:10183000018041808180C180018141818181C1819C
:101840007047002101804180012181800021C180F9
:10185000018170470021018041808180C180018128
:101860004181818170470000002C0140003401401B
:101870000004004000080040000C004021B1028834
:1018800042F00102028004E002884FF6FE731A4023
:101890000280704731B1B0F8442042F40042A0F811
:1018A000442005E0B0F84420C2F30E02A0F8442022
:1018B00070471AB183890B43838102E083898B438C
:1018C000838170478182704741EA0203A0F8483063
:1018D00070471AB183890B43838102E083898B436C
:1018E0008381704701894FF6F8721140018170477A
:1018F0000A46002101894FF68F7319401143018177
:10190000704730B504460D4629462046FFF7F0FFE4
:10191000208940F00700208130BD2DE9F0410446C8
:101920000D4616461F46602D06D13B460122314624
:101930002046FFF75AFE05E03B460122314620468D
:10194000FFF79DFE29462046FFF7D2FF208940F091
:1019500007002081BDE8F08130B50C4600210189E7
:10196000C9B24FF6FF7505EA032515432543294300
:10197000018130BD2DE9F04105460E4617469846D7
:10198000002443463A4631462846FFF7E5FF2C89B6
:101990004FF6F870044044F007044FF68F7004408F
:1019A00044F070042C81BDE8F081F0B504460D468A
:1019B00016461F463B46324629462046FFF7CCFFD7
:1019C000208940F480402081F0BD018582827047EB
:1019D0000A46002101884FF68F7319401143018098
:1019E0007047F0B50C4615461E4600210022002324
:1019F0000189028B038C4FF6F877394021434FF66B
:101A0000FC473A4040F201173A434FF6DD773B403E
:101A10004FF6FF7707EA06172F433B430181028306
:101A20000384F0BD0A460021018B4FF68F731940E5
:101A30001143018370470A460021018B48F6FF736A
:101A400019404FF6FF7303EA0223194301837047DD
:101A50000A460021818B4FF68F7319401143818311
:101A600070470A460021818B48F6FF7319404FF6F4
:101A7000FF7303EA022319438183704721B102886F
:101A800042F08002028004E002884FF67F731A4021
:101A90000280704721B1828842F00402828004E013
:101AA00082884FF6FB731A408280704721B182888A
:101AB00042F00802828004E082884FF6F7731A40F1
:101AC0008280704721B1828842F00102828004E066
:101AD00082884FF6FE731A40828070470A460021C2
:101AE000018B4FF6F77319401143018370470A4683
:101AF0000021018B4FF2FF7319404FF6FF7303EA89
:101B000002231943018370470A460021818B4FF657
:101B1000F77319401143818370470A460021818B76
:101B20004FF2FF7319404FF6FF7303EA0223194384
:101B3000818370470A460021018B4FF6FB731940E1
:101B40001143018370470A460021018B4FF6FF3392
:101B500019404FF6FF7303EA0223194301837047CC
:101B60000A460021818B4FF6FB7319401143818394
:101B700070470A460021818B4FF6FF3319404FF61C
:101B8000FF7303EA02231943818370470A46002149
:101B9000018B4FF67F7319401143018370470A464A
:101BA0000021018BC1F30E014FF6FF7303EA0223FC
:101BB0001943018370470A460021818B4FF67F73DA
:101BC00019401143818370470A460021818BC1F37C
:101BD0000E014FF6FF7303EA022319438183704716
:101BE0000A460021018C4FF6FD7319401143018410
:101BF00070470A460021018C4FF6F77319401143D4
:101C0000018470470A460021018C4FF6DF731940AA
:101C10004FF6FF7303EA02131943018470470A4623
:101C20000021018C4FF67F7319404FF6FF7303EAD2
:101C300002131943018470470A460021018C4FF6B4
:101C4000FF5319404FF6FF7303EA0223194301843F
:101C500070470A460021018C4FF2FF7319404FF67E
:101C6000FF7303EA02231943018470470A460021E7
:101C7000018C4DF6FF7319404FF6FF7303EA0233F0
:101C800019430184704730B5002301248C40A3B26E
:101C9000048C9C430484048C02FA01F5ADB22C43FD
:101CA000048430BD30B5002304248C40A3B2048CDE
:101CB0009C430484048C02FA01F5ADB22C430484E5
:101CC00030BD70B5034600200024184618300125A9
:101CD0008D40ACB21D8CA5431D8409B1082909D1E2
:101CE00000EB6100056825F0700505600568154387
:101CF00005600EE00D1FC5F34E052844056825F468
:101D0000E045056005684FF6FF7606EA0226354392
:101D1000056070BD21B1028842F00202028004E039
:101D200002884FF6FD731A400280704721B1028885
:101D300042F00402028004E002884FF6FB731A406E
:101D40000280704721B1828842F08002828004E0E4
:101D500082884FF67F731A408280704702884FF660
:101D6000F7731A40028002880A4302807047828813
:101D70004FF68F731A40828082880A4382807047B0
:101D800002894FF6F8731A40028102890A430281E0
:101D9000704702894FF67F731A40028102890A4315
:101DA00002817047818470478185704781867047C2
:101DB0000187704781877047A0F8401070470288FC
:101DC0004FF6FF431A40028002880A4302807047A0
:101DD0000146888E70470146088F70470146888FFC
:101DE00070470146B1F8400070470146888C704743
:101DF0000146088D704702460020138A0B4201D02D
:101E0000012000E000207047CA430282704730B5CD
:101E10000246002000230024158A05EA0103958963
:101E200005EA010413B10CB1012000E0002030BD2F
:101E3000CA430282704700000CB500200190009058
:101E40006A48006840F480306849086000BF67480D
:101E5000006800F4003000900198401C0190009848
:101E600018B90198B0F5A06FF1D16048006810F47E
:101E7000003F02D00120009001E000200090009877
:101E8000012840D15A48006840F0100058490860C5
:101E90000846006820F0030008600846006840F02B
:101EA0000100086051484068504948600846406851
:101EB00048600846406848600846406820F47C1046
:101EC00048600846406840F4F810486008460068DA
:101ED00040F08070086000BF4448006810F0007F48
:101EE000FAD04248406820F0030040494860084664
:101EF000406840F00200486000BF3C48406800F085
:101F00000C000828F9D10CBD10B5FFF795FF10BDE6
:101F100010B53648006840F00100344908600846B2
:101F200040683449084031494860084600683249F1
:101F300008402E4908600846006820F480200860A8
:101F40000846406820F4FE0048604FF41F00886097
:101F5000FFF7DAFF4FF000602849086010BD10B5A8
:101F6000002100200022214B5B6803F00C0121B10D
:101F7000042906D0082928D107E0214B214C2360F1
:101F800027E01F4B1F4C236023E0184B5B6803F4D2
:101F90007010164B5B6803F48032022303EB904011
:101FA00022B9194B4343174C23600DE00F4B5B687C
:101FB00013F4003F04D0144B4343124C236003E05E
:101FC0000F4B43430F4C236003E00D4B0D4C23603C
:101FD00000BF00BF054B5B68C3F303130B4CE15C10
:101FE000084B1B68CB40074C236010BD001002401B
:101FF000002002400000FFF8FFFFF6FE08ED00E0C1
:1020000000127A001400002000093D001800002092
:102010000948804709480047FEE7FEE7FEE7FEE77C
:10202000FEE7FEE7FEE7FEE7FEE7FEE704480549B8
:10203000054A064B70470000111F000831010008D7
:1020400008480020084E0020084A0020084A0020C6
:10205000014600BF704700BF244A128812F0400FAB
:10206000FAD0C2B2214B1B1D1A80704710B500F088
:1020700059F810BD10B58CB0002400200B90282218
:102080001B4901A810F01AFF00200090684601F0DB
:1020900030FE00BF06E001A800EB8401009801F0CB
:1020A0007EFE641C0A2CF6D3002405E00BAA214610
:1020B000009801F05CFF641C0A2CF7D3009801F033
:1020C00024FE0CB010BD10B5FFF7D0FFFFF7D2FF14
:1020D00000F024FA02F0A8FA0423064A0021064878
:1020E00001F06CF900F07FFA002010BD00380140CB
:1020F0000835010870020020153A0008704700BF3B
:10210000FEE700BFFEE700BFFEE700BFFEE7704747
:102110007047704710B500F013FA00F07CFA00F039
:102120002AFA10BD00B597B001214FF4F070FEF708
:102130000DFF01210802FEF7FCFE4FF63370ADF8EB
:10214000000018208DF8030003208DF80200694676
:102150003648FEF745FC4FF68370ADF8000069463F
:102160003348FEF73DFC4FF23F00ADF800006946F2
:102170003048FEF735FC40F23F40ADF800006946BC
:102180002D48FEF72DFC00200190029003200390C3
:1021900000200490059006900790042008900020ED
:1021A00009900A9010200B9000200C900E900D903A
:1021B0000F9010904FF480501190002012901390C7
:1021C000149001A81590169008A8FEF7ECF80121CC
:1021D0000420FEF749FA17B000BD10B506E00478F8
:1021E0004FF0D0435C54491C401C521E002AF6D1CB
:1021F00010BD06E04FF0D0435B5C00F8013B491C8A
:10220000521E002AF6D1704713B50C460122214612
:102210006846FFF7E2FF1CBD18B5044601222146BF
:102220006846FFF7E6FF9DF8000018BD0014014066
:1022300000180140001C01400020014010B50121A0
:102240001D48FFF7E4FD20B11C480068401C1B49F5
:10225000086001211848FFF7EBFD10BD7FB505466A
:102260000C4601211020FEF77EFEADF80850ADF8B7
:1022700004400020ADF80A00ADF8060001A90E48A0
:10228000FEF7A0FF012241210B48FFF712FB0121BD
:102290000948FFF7F3FA36208DF8000001208DF889
:1022A000010002208DF8020001208DF8030068462D
:1022B000FDF7C1FF7FBD0000001000402C00002092
:1022C0000246002005E011F8013B02F8013B431CE7
:1022D000D8B20B78002BF6D1137070472DE9F0417E
:1022E00005460E4614460027FE480078002804DD07
:1022F000112020700020BDE8F0812878012808D046
:10230000022807D0032802D0042804D100E000BF2F
:1023100000BF00BF03E0012020700020EBE700BFFA
:1023200001F0E4FA074605F10F013046FFF7C8FF58
:102330008046384601F0DEFA002020704046DAE799
:102340000146002002E0491C421CD0B20A78002A53
:10235000F9D170472DE9F04105460F4614464FF07C
:102360000008E0480078002803DD12202070BDE856
:10237000F0812878012808D0022807D0032802D04D
:10238000042804D100E000BF00BF00BF02E001202C
:102390002070ECE700BF01F0A9FA80463846FFF74D
:1023A000CFFF06460F2E05DD404601F0A3FA0B20B5
:1023B0002070DCE7394605F10F00FFF781FF40464A
:1023C00001F098FA0020207000BFD0E7002400BF81
:1023D00001F08CFA0446C4480068401CC2490860F9
:1023E000204601F087FA01F02FFAF1E700B587B037
:1023F000032000218022BD4BCDE90132CDE903103D
:102400004FF6FF701F23BA4A0090AFF23F0001F071
:1024100020F806AAB7A11F2001F06AF907B000BD95
:1024200004E0002200F8012B4A1E91B20029F8DCDA
:10243000704730B54FF4A071B248FFF7F1FFB14BD0
:1024400003F1200500240AE0002018705D603F20A1
:10245000D8730021197420332035601C84B2092CF4
:10246000F2DB0020187058603F20D87300211974E7
:10247000A448A549086030BD30B540F2E461A348E6
:10248000FFF7CEFF8021A248FFF7CAFF9F4B03F161
:10249000540500240AE05D613F2083F844000021D8
:1024A0004520C15454335435601CC4B2142CF2D3AB
:1024B000002058613F2083F8440000214520C1548A
:1024C00000209449086091489349086030BD00227B
:1024D000924B1A709249002004E0002201F8012B6F
:1024E000421CD0B20428F8DB00228E4B1A708E4BAF
:1024F0001A708E4B1A608E4B1A60704700208D49FF
:102500000860784908708C4908708C4908708C49BB
:1025100008708C49086074490860704710B501F074
:102520008FF9FFF7EBFFFFF7D2FFFFF7A5FFFFF7EC
:1025300080FF00F04BFDFFF759FF01F082F910BD5D
:102540007F480078012808D166480078FF2804D227
:1025500064480078401C6349087070477A496F4AA4
:102560001278885C6E49095C774A515C01EBC001C6
:102570006D4A1170704710B5002471480078012829
:1025800030D101F0B3F9044656480078002804DD44
:1025900054480078401E5349087052480078F0B9FA
:1025A00065480078D8B9FFF7D9FF5F4800785D49E2
:1025B0000978884213D056485B49097850F82100C1
:1025C0005A49086008460068006B401C09680863A7
:1025D0005C480068401C5B49086001F0A3F9204694
:1025E00001F088F910BD10B55548007890B9FFF793
:1025F000B5FF4D4800784B49087045484A4909786D
:1026000050F82100494908600846006848490860B8
:1026100001F073F910BD70B5002501F067F90546AA
:1026200044480068401C43490860284601F062F9AC
:102630004348007801283FD13648046838E001F06B
:1026400055F90546A08C78B3A08C401E0004000C00
:10265000A08429D194F8260010F0370F09D014F87F
:10266000260F20F03700207001206070A4F12604AE
:1026700002E0002084F8270094F8260010F0080FEC
:1026800012D104F12A04A0782449097840EA010013
:102690002249087020782249085C617840EA0100EC
:1026A00014F82A191E4A50546469284601F022F988
:1026B00094F828001F28C2D170BD4FF48F70704766
:1026C000704710B590F82A2001F10B039B5C90F83D
:1026D0002B40A34301F10B04A35423469B5CABBBEB
:1026E0008B7A34E03800002044000020B40300203E
:1026F000B005002075432F4F532D49492049646C84
:102700006500000074020020340000203406002020
:10271000B4050020540000204C0000203C000020A4
:102720003D0000203A0000203B0000205000002027
:10273000480000205C0000203900002042000020FA
:1027400041000020300000203035010803E090F8FF
:102750002C40A3438B7210BD2DE9F04F05460F4668
:1027600090469946A87A9C490E5C05F10B00805D65
:1027700011F800B00BEBC60000F0FF0A974850F8C4
:102780002A40002004F12004A0802760A07920EADC
:102790000800A07184F80790A079A4F1200410F03B
:1027A000080F0DD194F82C008D49097808438C4905
:1027B00008708C48805D94F82B100843894988552F
:1027C00029462046FFF77DFF5046BDE8F08F10B543
:1027D000854A1268D061844A126892F82A3000F162
:1027E0000B02D25C804B1B6893F82B301A437E4B54
:1027F0001B6893F82A4000F10B031A55827A7A4B32
:102800001B6893F82C301A438272774A126892F848
:102810002A10744A525C744B1B6893F82B309A430D
:10282000704B5A541A46525C42B96F4A126892F879
:102830002C306B4A12789A43694B1A7010BD0023F2
:10284000837200F10B01002204E0002301F8013B38
:10285000531CDAB2042AF8DB704705E011F8013B9B
:1028600000F8013B531E9AB2002AF7DC704710B5FE
:10287000002401F03BF804465C480078F0B95C485D
:102880000078D8B9FFF76AFE5A4800785A490978A3
:10289000884213D051485749097850F821005749C8
:1028A000086008460068006B401C096808635448CB
:1028B0000068401C5249086001F02FF8204601F0E2
:1028C00019F810BD2DE9F84F05460E4617469846F3
:1028D000DDE90BABDDF828900020009001F006F850
:1028E000009048480468002C70D054F8140F4549F3
:1028F0000860009800F0FEFF44F8146C2575002075
:10290000A074E074208244F810AC44F8089C44F8A9
:102910000C7C24F804BC24F8028C6076E810A075C6
:1029200005F007006075A17D012088402076617D5B
:1029300001208840E0750020A060E060E0616062F6
:102940002062A062E0623F2084F83000A4F1140409
:102950004FF000014FF045000155204600F0C4FF44
:10296000204600F06FFF00F0C1FF00901B4840F8C8
:1029700025402548006860610020A0612248006869
:1029800010B12148006884611F48046004F12A04E2
:10299000A0781349097840EA0100114908702078AD
:1029A0001049085C617840EA010014F82A190D4AC0
:1029B00050541648007800F101001449087000983E
:1029C00000F098FF0020BDE8F88FFFE7009800F0C6
:1029D00091FF4220F7E7000030350108B4050020E0
:1029E0003C0000203D00002048000020380000206E
:1029F000390000203B0000203A0000205000002059
:102A0000300000204C000020540000204200002034
:102A10002DE9F04106460D464FF0000830780228B7
:102A200004D0012028700020BDE8F08100F05EFF96
:102A300080467468E08A00280FDD2169081D206146
:102A40000F68E08A401EE082A1682069884201D1B7
:102A5000606820610020287002E01F202870002795
:102A6000404600F047FF3846DEE72DE9F0410646D4
:102A70000F464FF00008FB480078002802DD0020D8
:102A8000BDE8F08100F032FF8046F7480468006836
:102A900020B1F54800684068F3490860404600F0FE
:102AA00029FF0CB300F022FF8046F0480568E5B12D
:102AB00000680068ED490860404600F01BFF6E604A
:102AC00006EB8700A860EE602E61AF820020E882EE
:102AD000022020700020208165603F20E0730021EB
:102AE00021742046FFF7ABFE08E0DF480068606015
:102AF000DD480460404600F0FDFE00242046BFE7AC
:102B00002DE9F0470446894615464FF0000A207823
:102B1000022804D0012028702046BDE8F087D14863
:102B20000078002803DD0F2028702046F5E700F02C
:102B3000DDFE8246A07A10B14FF0010801E04FF0AF
:102B40000008B9F1000F03D0B9F1010F4DD123E016
:102B5000B8F1000F19D13F20E0730021217466689D
:102B6000C24800683060C148066000202070BE483E
:102B70000068606000202081BB480460504600F07F
:102B8000B9FE00202870002705E0504600F0B2FE94
:102B90004920287027462FE005E00023042219462B
:102BA0002046FFF7D9FDA07A0028F6D13F20E07338
:102BB000002121746668AD4800683060AB4806604B
:102BC00000202070A8480068606000202081A6488E
:102BD0000460504600F08EFEB8F1010F01D1FFF7FE
:102BE00046FE00202870002706E0504600F082FED6
:102BF00007202870274600BF00BF38468DE770B514
:102C00000546002600F072FE06466C686068E060CB
:102C1000606820610020E082304600F06BFE0020FA
:102C200070BD2DE9F0470746884615464FF000096C
:102C30003878022804D0012028700020BDE8F087F1
:102C400088480078002803DD022028700020F5E77E
:102C500087480078002803DD0D2028700020EDE76C
:102C600000F044FE81467C68E08A002813DD21697B
:102C7000081D20610E68E08A401EE082A16820697C
:102C8000884201D160682061484600F033FE002090
:102C900028703046D2E77748006890F8260040F068
:102CA00004007449096881F8260000207149096808
:102CB00081F827006F480068A0F824803846FFF7A5
:102CC00086FD484600F016FEFFF7D1FD00F00EFE2F
:102CD00081466848006890F8270020B101280DD08F
:102CE00002280AD105E063480068066A00202870BF
:102CF0000DE000260E20287009E000BF39465D482F
:102D00000068FFF7DEFC00260A20287000BF00BF25
:102D100000205849096881F826005649096881F859
:102D2000270054490968C861524909680862484641
:102D300000F0E0FD304681E72DE9F04104460F4602
:102D400015464FF000082078022804D00120287092
:102D50000020BDE8F08100F0C9FD8046A07A20B3D4
:102D600000267FB1012F0CD107E0022304220021AD
:102D70002046FFF7F1FC701CC6B2A07A0028F4D1FF
:102D800009E000BF0223042200212046FFF7E4FCF3
:102D9000701CC6B200BF00BF404600F0ABFDFFF79D
:102DA00066FD0E2028703046D3E7404600F0A2FDB5
:102DB0000020287000BFCCE72DE9F04105460E4603
:102DC00000272878022802D00120BDE8F08100F019
:102DD0008DFD0746A87A60B10023042231462846BB
:102DE000FFF7BAFC384600F085FDFFF740FD0020F4
:102DF000EBE76C68E08AA18A884204DB384600F081
:102E000079FD1E20E1E7E168081DE0600E60E08AC0
:102E1000401CE082D4E90210884201D16068E06081
:102E2000384600F067FD0020CFE72DE9F041054668
:102E30000E4600272878022802D00120BDE8F08144
:102E400000F054FD0746A87AB0B1002304223146B1
:102E50002846FFF781FC384600F04CFDFFF707FDE0
:102E60000020EBE73800002034000020580000204C
:102E700039000020480000206C68E08AA18A88425E
:102E800004DB384600F036FD1E20D7E76168206974
:102E9000884201D1A06820612069001F206120695B
:102EA0000660E08A401CE082384600F023FD0020E6
:102EB000C4E72DE9F04105460F4616464FF00008DD
:102EC0002878022802D00120BDE8F08100F00EFD34
:102ED0008046A87AE8B116F0010F0AD005E0002379
:102EE000042239462846FFF737FCA87A0028F6D195
:102EF00005E00023042239462846FFF72DFC404612
:102F000000F0F8FC16F0040F01D1FFF7B0FC002030
:102F1000DAE76C68E08AA18A884204DB404600F068
:102F2000E9FC1E20D0E716F0020F0BD06168206983
:102F3000884201D1A06820612069001F20612069BA
:102F4000076009E0E168081DE0600F60D4E9021045
:102F5000884201D16068E060E08A401CE08240461F
:102F600000F0C8FC0020AFE72DE9F04705460C460D
:102F70004FF0000A2878022802D00120BDE8F0872F
:102F800000F0B4FC8246A87A207305F10B0804F126
:102F90000809002705E018F8010B09F8010B781C57
:102FA000C7B2042FF7DB6E68F08A002803DD3069B2
:102FB0000068206001E000202060F08AA080B08AD4
:102FC000E080504600F096FC0020D7E770B5602105
:102FD0000A48FFF725FA094C04F11806002504E019
:102FE000266018341836681C85B2032DF8DB0020E3
:102FF000206002480249086070BD0000180D0020E2
:103000005800002070B5044600262078032801D01F
:10301000002070BD00F06AFC06462589002D02DD07
:103020002089401E2081304600F064FC2846F0E7ED
:1030300070B505460026DD480078002801DD002037
:1030400070BD00F053FC0646D9480468006820B102
:10305000D74800684068D6490860304600F04AFC0E
:103060005CB1032020702581002060603F20E07368
:10307000002121742046FFF7E2FB2046E0E72DE91E
:10308000F0470446884615464FF00009207803288B
:1030900004D0012028702046BDE8F087C34800789E
:1030A000002803DD0F2028702046F5E700F01EFC05
:1030B0008146A07A08B1012700E00027B8F1000F8F
:1030C00003D0B8F1010F3ED11BE09FB93F20E07360
:1030D0000021217400202070B54800686060002045
:1030E0002081B3480460484600F004FC00202870AA
:1030F000002605E0484600F0FDFB492028702646E2
:1031000028E005E00023012219462046FFF724FBB2
:10311000A07A0028F6D13F20E0730021217400201E
:103120002070A3480068606000202081A0480460EF
:10313000484600F0DFFB012F01D1FFF798FB00208C
:103140002870002606E0484600F0D4FB07202870CF
:10315000264600BF00BF30469EE72DE9F0410546F8
:103160000E46144600272878032803D0012020703B
:10317000BDE8F0818D480078002802DD0220207033
:10318000F6E78C480078002802DD0D202070EFE77C
:1031900000F0ACFB07462889002808DD2889401E7E
:1031A0002881384600F0A6FB00202070E0E7824826
:1031B000006890F8260040F001007F49096881F816
:1031C000260000207C49096881F827007A480068B9
:1031D00086842846FFF7FBFA384600F08BFBFFF7A2
:1031E00046FB00F083FB07467348006890F8270011
:1031F00020B1012809D0022806D102E00020207069
:103200000BE00E20207008E000BF29466A480068E5
:10321000FFF757FA0A20207000BF00BF0020664960
:10322000096881F826006449096881F82700624925
:103230000968C861384600F05DFB00BF98E72DE9DA
:10324000F04104460F4615464FF000082078032849
:1032500004D0012028700020BDE8F08100F046FB7A
:103260008046A07A20B300267FB1012F0CD107E061
:103270000223012200212046FFF76EFA701CC6B21D
:10328000A07A0028F4D109E000BF02230122002126
:103290002046FFF761FA701CC6B200BF00BF40466F
:1032A00000F028FBFFF7E3FA0E2028703046D3E742
:1032B000404600F01FFB0020287000BFCCE770B52F
:1032C000044600252078032801D0012070BD00F0BD
:1032D0000DFB0546A07A60B1002301221946204665
:1032E000FFF73AFA284600F005FBFFF7C0FA002086
:1032F000ECE720894FF6FF71884207D22089401CF5
:103300002081284600F0F6FA0020DFE7284600F08A
:10331000F1FA3220DAE72DE9F04704460D464FF086
:1033200000092078032802D00120BDE8F08700F0D2
:10333000DDFA8146A07AA87104F10B07AE1C4FF0AC
:10334000000807E017F8010B06F8010B08F101006F
:1033500000F0FF08B8F1040FF4DB2089288048460C
:1033600000F0C8FA0020E0E72DE9F04104460E46DF
:10337000154600272078032803D001202870BDE8D7
:10338000F08100F0B3FA0746002028702089002859
:1033900001DD268105E0A07A08B9268101E04920F7
:1033A0002870384600F0A6FA00BFE8E73800002091
:1033B0003400002039000020480000202DE9FE4F95
:1033C00006460F4690461C464FF0000900F08EFA64
:1033D0008146E8480078002805DD484600F08AFA72
:1033E0003C20BDE8FE8FE44850F8240060BB01207B
:1033F000E14941F82400484600F07CFA00234246A7
:103400003946304600F022FA8246002000900190B2
:1034100003460246514602902046FFF753FA0546FE
:1034200035B9D648007801280CD1FFF720FA09E019
:1034300000F05CFA81460020CF4941F8240048465C
:1034400000F058FA2846CCE7484600F053FA282006
:10345000C7E72DE9F04F85B00746884691461C46E0
:10346000DDE911B6DDF838A00020039000F03EFA47
:103470000390C0480078002806DD039800F03AFA6F
:103480003C2005B0BDE8F08FBB4850F8240060BB7D
:103490000120B94941F82400039800F02BFA334683
:1034A0004A464146384600F0D1F9049010985346F8
:1034B000CDE901B6009020460F9A0499FFF702FA71
:1034C000054635B9AD48007801280CD1FFF7CFF992
:1034D00009E000F00BFA03900020A74941F824000E
:1034E000039800F007FA2846CBE7039800F002FAA9
:1034F0002820C6E770B5054600269E4800780028BB
:1035000001DD402070BD1F2D01D13E20FAE700F003
:10351000EDF90646FF2D03D19948006890F8285030
:10352000954850F8254024B9304600F0E3F943208F
:10353000E8E7012C04D1304600F0DCF93D20E1E75A
:1035400014F82A0F8F49085C6178884321788D4AE6
:10355000505414F82A091146085C30B994F82C101C
:1035600089480078884388490870E06918B1204686
:10357000E169FFF7A6F80020A08484F8260084F80B
:10358000270082480078FF2804D280480078401C39
:103590007E490870304600F0ADF9FFF791F800F071
:1035A000A5F9064679480078002804DD77480078B8
:1035B000401E76490870204600F045F974480078AE
:1035C000401E7349087000206B4941F82500A0692E
:1035D00030B90020616988616E496069086005E062
:1035E000D4E905014861D4E9051088616A4800689A
:1035F0006061694804603F2084F844000021452050
:103600000155304600F076F95C480078012801D178
:10361000FFF72DF9002075E72DE9F041044600275A
:103620001F2C02D13E20BDE8F081FF2C0BD100F011
:103630005DF907465248006890F82D60384600F062
:1036400059F93046EFE700F051F907464A4850F87B
:10365000245025B9384600F04DF94320E3E7012D09
:1036600004D1384600F046F93D20DCE73F2085F8DC
:103670002D00384600F03EF90020D4E72DE9F04750
:1036800006460F4614464FF000083A4800780028D6
:1036900004DD112020700020BDE8F08700F026F93D
:1036A0008046FF2E03D13648006890F828603248E3
:1036B00050F8265035B9404600F01CF943202070E0
:1036C0000020E9E7012D06D1404600F013F9432020
:1036D00020700020E0E705F144013846FEF7F0FDD8
:1036E0008146404600F006F9002020704846D3E7A6
:1036F0002DE9F0470646884614464FF000091D485C
:103700000078002803DD12202070BDE8F08700F06B
:10371000EDF88146FF2E03D11948006890F8286023
:10372000154850F826502DB9484600F0E3F84320DC
:103730002070EAE7012D05D1484600F0DBF8432070
:103740002070E2E74046FEF7FBFD07460F2F05DD40
:10375000484600F0CFF841202070D6E7414605F1F9
:103760004400FEF7ADFD484600F0C4F8002020708C
:1037700000BFCAE738000020B40500204100002047
:10378000480000203D0000203C00002039000020BF
:1037900042000020540000204C00002070B5054677
:1037A000002622480078002800DD70BD002D23DDB2
:1037B00000F09CF806461E48006890F82A401D4814
:1037C000005D1B49096891F82B1088431949085579
:1037D0000846005D40B91648006890F82C1016485D
:1037E0000078884314490870114800688584304681
:1037F00000F080F8FFF73BF800BFD6E770B5002572
:1038000000F074F805460D480468284600F072F888
:10381000204670BD70B50446002500F067F80546E7
:1038200006480460284600F065F870BD38000020A6
:10383000480000203D0000203C0000205C000020EB
:1038400070477047704770477047704770B50446BF
:1038500010464FF080750560051F28462C606FF0FC
:103860000106051F28462E604FF01236051F284618
:103870002E604FF00336051F28462E604FF00236AB
:10388000051F28462E607610051F28462E60051F4E
:10389000284629604FF01136051F28462E604FF04C
:1038A0001036051F28462E604FF00936051F2846A2
:1038B0002E604FF00836051F28462E604FF0073661
:1038C000051F28462E604FF00636051F28462E603D
:1038D0004FF00536051F28462E604FF00436051FB1
:1038E00028462E6070BD704770470000EFF31080CF
:1038F00072B6704780F3108870471D484FF0FF0183
:103900000170002080F309881A48012101701A48CB
:103910004FF08051016062B6FEE717484FF08051CA
:103920000160704714484FF080510160704772B6D3
:10393000EFF3098028B1203880E8F00F0F490968BB
:10394000086000B50E4880475DF804EB0D480E494D
:103950000A78027009480D490A680260106890E808
:10396000F00F203080F309884EF0040E62B67047E5
:1039700022ED00E04100002004ED00E048000020BE
:10398000E73800083A0000203B00002050000020EB
:1039900030B585B06846FDF76CFA4FF47A7201983D
:1039A000B0FBF2F1B1F1807F00D31DE021F07F4048
:1039B000401E4FF0E022506150170F22002807DA16
:1039C00013071D0E204B00F00F04241F1D5503E0AC
:1039D00013071C0E1D4B1C5400BF00204FF0E022AB
:1039E00090610720106100BF05B030BD00BF4FF4EB
:1039F000FA70FFF7D3FE4FF4FA70FFF7CFFEF6E749
:103A000000BF4FF4FA70FFF7C9FE4FF4FA70FFF7EA
:103A1000C5FEF6E770B50546FFF7BAFF0F230C4A5F
:103A200000210C48FFF7CAFC044610230A4A002173
:103A30000A48FFF7C3FC04460CB100BFFEE7FF20B5
:103A4000FFF758FD70BD000018ED00E000E400E055
:103A5000740F0020ED39000874110020013A0008AD
:103A60007548002101604160002074490860744875
:103A700074490860002074490860704710B5014619
:103A80006D4800E0006803688B42FBD30246436840
:103A900013448B4204D143684C682344436001467D
:103AA0000A464B6813440468A34211D1634C03686F
:103AB0002468A34208D04B680468646823444B60C0
:103AC00003681B680B6005E05C4B1B680B6001E042
:103AD00003680B60884200D0016010BD10B55B4BDD
:103AE00023F00700544B18600023534C6360544B81
:103AF000C218083A514B1A601B7813F0070F01D116
:103B0000012300E000230BB900BFFEE700234B4C6C
:103B100024686360494C246823600146484B083B95
:103B20004B60464B1B680B60464B1B68083B454C83
:103B300023604FF00043444C236010BD2DE9F04159
:103B400005464FF000083D48006808B9FFF7C6FF7A
:103B50003D48006805423CD145B1083515F0070FD6
:103B600004D005F00700C0F1080005448DB33548C6
:103B7000006885422DD8304E3046046801E0264664
:103B800024686068A84202D220680028F7D12B4838
:103B9000006884421DD0306800F108082068306059
:103BA0006068401B102807D967196068401B78605F
:103BB00065603846FFF762FF224960680968081AA5
:103BC0002049086020496068096808436060002057
:103BD00020604046BDE8F08170B504460D460026E1
:103BE00004FB05F0FFF7AAFF064604FB05F130468B
:103BF0000FF0D3F9304670BD70B506463546B6B104
:103C0000083D2C4610496068096808420FD02068BA
:103C100068B90D496068096888436060094960684F
:103C200009680844074908602046FFF727FF70BD70
:103C300004480068704770476C0000206000002056
:103C400038420F006400002068000020080000686F
:103C50002DE9F04704460F460025A8464FF07E5157
:103C600060680FF051FB02D84FF0804600E06668B4
:103C7000206860B16FF001012068B1FBF0FA504696
:103C80000FF02EFB814631460FF03EFB02D802209A
:103C9000BDE8F0871C210120E268904705460DB978
:103CA0000120F5E722689000A16888478046B8F1B6
:103CB000000F04D12846216988470120E8E7C5F8AC
:103CC0000C80AE6020686860A0682861E068686168
:103CD0002069A8613D600020DAE74FF08041416033
:103CE00008210160FD498160FD49C160FD49016114
:103CF000704710B586B0044601A8FFF7EEFF2146D5
:103D000001A8FFF7A5FF06B010BD10B50446A169D4
:103D1000E06888472046A169884710BD70B5044611
:103D2000002505E0E26852F82500A16988476D1C6E
:103D30002068A842F6D82046FFF7E7FF70BD2DE9BE
:103D4000F0410446002560680FF0CAFA8046A16879
:103D50000FF00EFB07460FF0A3FA06466068801CC2
:103D600002D10420BDE8F081B000216988470546F2
:103D70000DB90120F6E7206882002846E1680FF0BF
:103D80009DF86068B04203D36FF00100606000E00E
:103D90006660A169E0688847E5600020E2E770B5E9
:103DA00004460D46D4E90001884207D32046FFF7B8
:103DB000C6FF06460EB1304670BD00BF2168E06800
:103DC00040F821502068401C20600020F4E72DE9D5
:103DD000F04104460E4615462068A84205D13146FA
:103DE0002046FFF7DCFFBDE8F081206800B91DB96F
:103DF0002068401EA84201D20820F4E7D4E900015F
:103E0000884209D32046FFF79AFF8046B8F1000F99
:103E100001D04046E7E700BF2068401B8700E2680A
:103E200002EB850113466A1C03EB82003A460FF051
:103E300077F8E06840F825602068401C206000208A
:103E4000D1E710B504462068904201D8082010BD83
:103E50001BB1E06850F822001860E06840F82210BA
:103E60000020F4E710B503460C46002108E0D868AE
:103E700050F82100A04202D11160002010BD491C61
:103E800018688842F3D80820F8E72DE9F84304467B
:103E90000E4615466A4631462046FFF7E3FF0746C1
:103EA000082F02D10720BDE8F8832068401E009942
:103EB000884211D020680099401A4FEA8008E368D0
:103EC000009A521C03EB82011A46009B02EB83000E
:103ED00042460FF025F800BF2068401E206005B163
:103EE0002E600020DFE72DE9F04104460D4616461E
:103EF0002068A84202D80820BDE8F0811EB1E06821
:103F000050F8250030602068401EA8420CD0206880
:103F1000401B87006A1CE36803EB820103EB85000A
:103F20003A460EF0FDFF00BF2068401E20600020D2
:103F3000E2E770B504460D462068411E2A46204639
:103F4000FFF7D1FF70BD00210160704770B50446D6
:103F5000002505E0E26852F82500A16988476D1C3C
:103F60002068A842F6D82046FFF7EDFF70BD034653
:103F70001868884201D808207047D86850F8210096
:103F800010600020F8E730B504460D46206808B9F7
:103F9000072030BD2068411E2A462046FFF7E7FF74
:103FA000F7E70146C86870472DE9F04105460E461F
:103FB00017469846BE4202D82868B84202D8032065
:103FC000BDE8F0811C2101206A69904704460CB9C4
:103FD0000120F5E76A68900029698847E060E06899
:103FE00020B92046A96988470120E9E728692061AE
:103FF00068696061A869A061B81B401C20602068E6
:104000006060EB6803EB860123689A00E0680EF0BD
:1040100055FFC8F800400020D2E770B505460E46AF
:104020001C202969884704460CB9012070BD042171
:104030006A6968689047E060E06820B92046A9692D
:1040400088470120F2E7A868A060286820606868B7
:1040500060602869206168696061A869A06123685F
:104060009A00E968E0680EF029FF34600020DDE77F
:104070002DE9F04105460F4690461C2029698847E6
:10408000044614B90120BDE8F08104216A6968681A
:104090009047E060E06820B92046A9698847012080
:1040A000F1E7A868A06028682060686860602869F7
:1040B000206168696061A869A061002607E0E9687D
:1040C00051F82600B847E16841F82600761C2068C0
:1040D000B042F4D8C8F800400020D4E73D3B0008C7
:1040E000D93B0008F93B00082DE9F0470446884613
:1040F00000250027206810B90820BDE8F087206857
:10410000461E1DE0E16851F82600C04708B96D1C45
:1041100015E095B16FB14FEA870A721C2A44E36833
:1041200003EB8201721C03EB820052460EF0F8FE94
:1041300000BF2068401B206000257F1C00BF761E4A
:10414000701CDFD15DB14FEA8709E26802EB85019F
:1041500010464A460EF0E4FE2068401B2060002016
:10416000CBE72DE9F04704460F4690460026B146BE
:104170000025206810B90820BDE8F0871C202169BF
:10418000884705460DB90120F6E704216269606899
:104190009047E860E86820B92846A169884701206F
:1041A000EAE7A068A860002028606068686020696D
:1041B000286160696861A069A861002611E0E16872
:1041C00051F82600B84758B1E06850F82620484614
:1041D00009F10109EB6843F820202868401C286099
:1041E000761C2068B042EAD8C8F800500020C3E727
:1041F00030B5002103685A1E0DE0C46854F8213020
:10420000C46854F82240C56845F82140C46844F8A1
:104210002230491C521E03685B1EB1EB530FECD3D6
:1042200030BD70B5044600260025D4E9000188425F
:1042300001D1002070BD04216269206890470546C5
:104240000DB90120F6E7206808B9012000E02068D8
:104250000646B2002846E1680EF030FEA169E0682B
:104260008847E560206860600020E3E72DE9F041C1
:1042700004460E4617464FF00008002508E0E068A7
:1042800050F825103046B84708B908F101086D1CF0
:104290002068A842F3D84046BDE8F08170B50446D6
:1042A0000D469A4A29462046FFF7E0FF70BD0146B9
:1042B0000868704701464868704770B504460D4667
:1042C0002B4604222168E0680EF025FD70BD70B514
:1042D00004460E46002504E0E16851F82500B04789
:1042E0006D1C2068A842F7D870BD2DE9F041044646
:1042F0000D46174600262068012806D1E1683A4697
:1043000008680021A847BDE8F0812068012803D98A
:10431000E26803CA3A46A847022606E0E06850F879
:1043200026103A463846A847761C2068B042F5D891
:1043300000BFE8E701600022426002727047024657
:10434000D2E900301B68984201D3092070471068F9
:10435000C068536850F8230008605068401C5060E3
:104360000020107200BFF1E770B504460D46072625
:10437000207A48B96268511E2A462068FFF7B3FDCB
:1043800006460EB901202072304670BD70B5044655
:104390000D466368591C1A46616029462068FFF77C
:1043A00016FD70BD70B504460E46154661684A1E7E
:1043B0002B4631462068FFF744FD70BD0146486832
:1043C000401E7047016042600023836003737047A2
:1043D00010B503461C6898682468A04204D2D3E94B
:1043E00001402468A04201D3092010BD1868C068AC
:1043F0009C6850F8240008605868C0689C6850F8B1
:10440000240010609868401C98600020187300BF5A
:10441000EBE770B504460D461646A068401E2168BD
:104420000968884205D2A068401E61680968884210
:1044300001D3082070BD207B78B9A268511E2A469E
:104440002068FFF750FDA268511E32466068FFF7F2
:104450004AFD012020730020ECE70720EAE72DE960
:10446000F047044688461746D4F8089009F1010041
:10447000A06025686668D5E90001884203D1284616
:10448000FFF75DFC38B9D6E90001884206D1304615
:10449000FFF755FC10B10120BDE8F0874A464146C0
:1044A0002846FFF794FC4A4639463046FFF78FFC12
:1044B0000020F1E72DE9F04104460E4615461F465F
:1044C000DDF81880A068401E21680968884205D27E
:1044D000A068401E61680968884202D30820BDE8D0
:1044E000F081A1684A1E3B4631462068FFF7A9FCCF
:1044F000A1684A1E434629466068FFF7A2FC0020D7
:10450000EDE701468868401E70470000214500081D
:1045100070B504460D46294620460EF087FD70BD55
:1045200002468A4202D24FF0FF3070478A4201D9D8
:104530000120FAE70020F8E710B5024614680B687E
:104540009C4202DA4FF0FF3010BD9C4201DD012099
:10455000FAE70020F8E7000010B50446334800F001
:10456000D6FF10BD10B532480068FFF745FB314853
:104570000068FFF741FB30480068FFF73DFB2F481C
:104580000068FFF739FB10BD10B541F61C0420464A
:10459000FFF7D4FA264908604FF47A60FFF7CEFAA5
:1045A000244908604FF40060FFF7C8FA2349086007
:1045B0001F48006828B11F48006810B1084600680D
:1045C00018B9FFF7CFFF012010BD0020FCE7C02184
:1045D0008171A822C271022202726A2242720221F1
:1045E00001700021417081700121C17002210171AF
:1045F00003214171C0218172A822C272022202737A
:104600001E224273FF218173FF22C27300220274B3
:104610004274C0218174A822C27402220275012250
:10462000427500218175704700207047901100206D
:104630008C0000207C000020740000207800002006
:1046400010B5044604EB8400FD4951F8200070B118
:1046500000BF00BF04EB8401F94A52F8210001F0C9
:1046600067FE002004EB8401F54A42F82100002097
:1046700004EB8401F24A02EB8101887404EB8401AB
:1046800002EB8101C87404EB840102EB81018860B4
:1046900004EB840102EB8101486004EB84001146C5
:1046A00001EB8000E7490A68C2608988018210BD79
:1046B00070B500BF00BF00243FE004EB8400E04978
:1046C00001EB8000857C35B304EB840001EB8000B6
:1046D000C07C401C04EB8401D94A02EB8101C87400
:1046E00004EB8400114601EB8000C07CF0280DDA59
:1046F00004EB840001EB8000807C01280CD104EBEA
:10470000840001EB8000C07C022805DB00BF00BFF5
:104710002046FFF795FF0EE004EB8400C84901EB4B
:104720008000807C032806D1022004EB8401C44A67
:1047300002EB81018874601CC4B20A2CBDDB70BD21
:104740002DE9FE4F064688464FF00A09CA460A2759
:104750000024002002900190BB46009000BF6FE053
:1047600004EB8400B64901EB8000857C0A2F04D15C
:104770001DB900BF00BF67B260E0002D5ED000BF72
:10478000012D0AD0022D08DA00BFAFA340F22B1290
:10479000B7A1C7A00EF02AF900BF00BF6EB104EBAD
:1047A0008401A74A02EB810130684968884204D13C
:1047B00000BF00BF60B2BDE8FE8F012D2AD104EB1F
:1047C00084009F4951F8200088B104EB840001EB7C
:1047D0008000C17C0098814230DB4FFA84FB04EBFF
:1047E0008400974901EB8000C07C009026E004EB38
:1047F0008400934901EB8000C17C029881421DDB5B
:104800004FFA84F904EB84008D4901EB8000C07CF1
:10481000029013E0022D11DB04EB8400884901EBC8
:104820008000C17C0198814208DB4FFA84FA04EBD6
:104830008400834901EB8000C07C0190601CC4B2FD
:104840000A2C8DDB18F0020F04D10A2F07D118F0C3
:10485000010F04D100BF00BF4FF0FF30ABE70A2FBC
:1048600002DAFCB200BF3AE0BAF10A0F14DA0AF039
:10487000FF0400BF00BF00BF04EB8400704951F883
:10488000200040B100BF70A340F2711293A188A034
:104890000EF0ACF800BF12E0B9F10A0F03DA09F02C
:1048A000FF0400BF0BE0BBF10A0F03DA0BF0FF04BB
:1048B00000BF04E000BF00BF4FF0FF307BE700BF48
:1048C0000A2C08DB00BF60A340F2831289A178A004
:1048D0000EF08CF800BF00BF2046FFF7B1FE00BF0E
:1048E0000A2C08DB00BF58A340F2871281A170A0F8
:1048F0000EF07CF800BF00BF00BF04EB84005049FD
:1049000001EB8000807C40B100BF4FA34FF4C47224
:104910007DA167A00EF06AF800BF00BF36B104EBBE
:104920008401474A02EB810130684860002004EBB3
:104930008401434A02EB8101C87460B23BE72DE970
:10494000F04104460E4617469846756800BF94F835
:104950002200062808D000BF3BA340F2A3127549ED
:1049600053A00EF043F800BF00BFD8F80000286045
:10497000B8F80400A8803868C5F80600B8886881CF
:104980000820A88100BF00BF31462046A269904799
:10499000BDE8F0812DE9F04706460D4617469846DA
:1049A00000BF96F82200062808D000BF26A340F2D8
:1049B000C31261A13EA00EF019F800BF00BF00BFF6
:1049C00000BF5DB1286848B13146286808F0B2FBE5
:1049D00020B9287800F0F000E02805D100BF00BF22
:1049E0006FF00D00BDE8F08741462846FFF7A8FEAE
:1049F0000446002C01DA2046F4E7022004EB84018F
:104A00000F4A02EB8101887404EB8400114601EB2C
:104A10008000866000BF00BF04EB840001EB8000D3
:104A20003968C160B9880182002004EB840102EB7F
:104A30008101C87404EB8400114651F820008FE016
:104A4000C0110020363601087372635C4C57495020
:104A50005C6C7769702D312E342E315C7372635C1F
:104A60006E657469665C6574686172702E630000BF
:104A70007374617465203D3D204554484152505F38
:104A800053544154455F50454E44494E47207C7C29
:104A9000207374617465203E3D2045544841525056
:104AA0005F53544154455F535441424C450000000C
:104AB000417373657274696F6E20222573222066BC
:104AC00061696C6564206174206C696E6520256481
:104AD00020696E2025730D0A000000006172705F6E
:104AE0007461626C655B695D2E71203D3D204E55A1
:104AF0004C4C000069203C204152505F5441424CD4
:104B0000455F53495A4500006172705F7461626C81
:104B1000655B695D2E7374617465203D3D2045546D
:104B2000484152505F53544154455F454D5054598C
:104B3000000000003C3601086E657469662D3E6811
:104B400077616464725F6C656E203D3D204554481A
:104B50004152505F4857414444525F4C454E00001B
:104B600098B104EB840051F82090002004EB8401FC
:104B700042F821003B4606F1230249463046FFF742
:104B8000DEFE484601F0D4FB00BF00202AE770B5E6
:104B90000546002412E004EB8400FC4901EB800090
:104BA000867C4EB104EB840001EB80008068A84253
:104BB00002D12046FFF744FD601CC4B20A2CEADB98
:104BC00070BD2DE9F04180460F4615461E4600BFD8
:104BD0000DB1002E0AD100BFAFF294134FF418723A
:104BE000EBA1AFF234100DF001FF00BF00BF0221B6
:104BF0003846FFF7A5FD0446002C16DB04EB8400C5
:104C0000E24901EB8000807C02280EDB04EB84008B
:104C100001EB80000C30286004EB840001EB800085
:104C2000001D30602046BDE8F0814FF0FF30FAE70C
:104C30002DE9FC4705468846164600BF65B900BF0A
:104C4000AFF2FC1340F2BB22DAA1AFF29C100DF0E0
:104C5000CDFE00BFBDE8FC8700BF70892A2805DAB9
:104C600000BF00BF304601F063FBF3E7776807F150
:104C70000E042088B0F5807F08D12079062805D160
:104C80006079042802D16088082805D000BF00BFE1
:104C9000304601F04DFBDDE7D4F80E000190A0692D
:104CA0000090281D01D0686810B94FF0000907E096
:104CB00000986968884201D1012000E00020814607
:104CC000B9F1000F01D0012000E00220034604F1F9
:104CD000080201A92846FFF75DFEE088B0F5807F55
:104CE00003D0B0F5007F49D145E000BF00BFB9F166
:104CF000000F37D000BF00BF022000F081FCE08031
:104D0000D4F80E00A0616868C4F80E0000BF95F8E2
:104D1000220006280AD000BFAFF2D42340F211329D
:104D2000A849AFF274200DF061FE00BF00BFA0687B
:104D3000C4F81200A089E082A0683860A089B88019
:104D4000D8F80000A060B8F80400A081D8F80000EE
:104D5000C7F80600B8F80400788131462846AA69E9
:104D6000904707E0281D01D0686808B900BF01E03E
:104D700000BF00BF05E000BF00BF02E000BF00BFF2
:104D800000BF00BF304601F0D3FA00BF62E72DE953
:104D9000F84F0746884691469A46DDF828B000202D
:104DA000009000BF57B900BFAFF2643340F2A54294
:104DB00080A1AFF204300DF019FE00BF00BF002249
:104DC0002A21032001F03DFB05462DB900BF00BF9D
:104DD0004FF0FF30BDE8F88F00BF68892A280ADA53
:104DE00000BFAFF29C334FF4966277A1AFF2403030
:104DF0000DF0FCFD00BF00BF6E6806F10E0400BFA1
:104E000000BF0D9800F0FCFBE08000BF97F8220087
:104E100006280AD000BFAFF2D0334FF49762694939
:104E2000AFF274300DF0E2FD00BF00BFDAF8000011
:104E3000A060BAF80400A0810B980168C4F81210B1
:104E40008088E082D9F800003060B9F80400B080B2
:104E5000D8F80000C6F80600B8F804007081DBF846
:104E60000000C4F80E000C980068A0614FF4807038
:104E700020800820608006202071042060714FF49B
:104E8000C160B08129463846BA69904700902846EB
:104E900001F04EFA002500989CE77FB504460D46C8
:104EA00000BF00BF0121554A201D04F123038DE8F6
:104EB00025000391524A19462046FFF768FF04B0C7
:104EC00070BD70B505460E46144600BF04EB840065
:104ED0002E4901EB8000807C02280ADA00BFAFF285
:104EE00098434FF4537247A1AFF23C400DF07EFD62
:104EF00000BF00BF04EB8400244901EB8000807CEC
:104F0000022817D104EB840001EB8000C07CE42868
:104F100010DB04EB84000A4602EB8000011D2846EA
:104F2000FFF7BBFF30B9032004EB8401174A02EB03
:104F30008101887404EB8400144901EB800000F1C6
:104F40000C0305F1230231462846FFF7F8FC70BD3B
:104F50002DE9F05F80460F46164608F123094FF011
:104F6000FF3A4146386808F0E5F838B9387800F07B
:104F7000F000E02802D00FB1386828B900BF00BFA8
:104F80006FF00D00BDE8F09F54E00000C01100205C
:104F90006574685F72657420213D204E554C4C202D
:104FA00026262069705F72657420213D204E554C85
:104FB0004C0000006E6574696620213D204E554C02
:104FC0004C0000003C360108636865636B20746820
:104FD0006174206669727374207062756620636103
:104FE0006E20686F6C6420737472756374206574CE
:104FF000686172705F6864720000000036360108F4
:10500000303601086172705F7461626C655B617259
:10501000705F6964785D2E7374617465203E3D2015
:105020004554484152505F53544154455F53544195
:10503000424C450001213846FFF782FB0446002C14
:1050400007DA00BF00BF0EB100BF00BF2046BDE8B9
:10505000F09F04EB8400F54901EB8000807C30B9BF
:10506000012004EB8401F14A02EB8101887400BF46
:1050700004EB8400ED4901EB8000807C012811D015
:1050800004EB840001EB8000807C02280ADA00BF78
:10509000AFF24C6340F21942E5A1AFF2EC500DF0D3
:1050A000A5FC00BF00BF04EB8400E04901EB8000D9
:1050B000807C012800D03EB939464046FFF7EDFE1E
:1050C00082460EB95046C2E700BF56B900BFAFF2E4
:1050D000886340F22D42E0A1AFF22C600DF086FC17
:1050E00000BF00BF04EB8400D04901EB8000807C4E
:1050F00002280FDBDB490C7004EB8400CB4901EB89
:10510000800000F10C034A4631464046FFF717FC89
:1051100082465EE004EB8400C44901EB8000807CA1
:10512000012856D14FF0000B354619E000BF6889C1
:10513000298988420CD1286850B100BFAFF2F863CA
:1051400040F23E42C8A1AFF298600DF04FFC00BFA4
:1051500000BF287B012802D04FF0010B02E02D6830
:10516000002DE3D100BFBBF1000F10D02989002230
:10517000032001F066F905466DB13146284601F07D
:1051800057FE40B1284601F0D3F8002503E035462C
:10519000284601F0DBFCBDB104EB8400A34951F8C3
:1051A000200040B100BF00BF04EB84019F4A52F8C9
:1051B000210001F0BDF804EB84009C4941F8205027
:1051C0004FF0000A00BF03E000BF00BF4FF0FF3AFE
:1051D00000BF50463BE72DE9FC4704460F46154605
:1051E000A94600BF5CB900BFAFF2A47340F27532AC
:1051F000AFF24021AFF248700DF0F8FB00BF00BFE6
:1052000000BF57B900BFAFF2C07340F2763292A12F
:10521000AFF264700DF0EAFB00BF00BF00BF55B9EC
:1052200000BFAFF2DC7340F2773296A1AFF280702C
:105230000DF0DCFB00BF00BF0E21384601F012FC70
:1052400028B100BF00BF6FF00100BDE8FC87214618
:10525000286807F06FFF10B1DFF8388277E0287810
:1052600000F0F000E02815D101208DF800000020AA
:105270008DF801005E208DF80200687800F07F0054
:105280008DF80300A8788DF80400E8788DF8050003
:10529000E8465BE02868A1680840D4E901121140A3
:1052A000884210D0288880B2A0F57E41A9390AD062
:1052B00014F10C0004D0E06810B104F10C0902E014
:1052C0006FF00300C1E76748007800EB80005749A2
:1052D00001EB8000807C022812DB6249097801EB37
:1052E0008101524A02EB8101D9F8000049688842E5
:1052F00006D15C48027839462046FFF7E2FDA4E774
:1053000000261BE006EB8600484901EB8000807C0C
:10531000022811DB06EB8601444A02EB8101D9F831
:1053200000004968884207D14E490E70F2B23946F2
:105330002046FFF7C6FD88E7701C46B20A2EE1DB67
:105340003A4649462046FFF703FE7EE700BF434644
:1053500004F1230239462046FFF7F1FA75E72DE9FB
:10536000F04104460E464FF00E0860890E2800DC1E
:1053700056E0656800BF00BFAF89287810F0010FC4
:1053800016D02878012809D1687888B9A8785E28CD
:105390000ED1607B40F01000607309E006223D49A9
:1053A00028460DF0FBFC18B9607B40F008006073E4
:1053B000082F03D0B7F5C16F2DD11FE096F8290053
:1053C00010F0200F00D12BE0C8F1000001B2204600
:1053D00001F048FB68B100BF00BFAFF6941340F284
:1053E0004F522DA1AFF638100DF000FB00BF00BFEB
:1053F00016E03146204607F099FC0DE096F82900AA
:1054000010F0200F00D10BE0224606F123013046B8
:10541000FFF70EFC00E003E000BF0020BDE8F081D4
:10542000204600F085FF0020F8E70000C0110020B2
:105430006172705F7461626C655B695D2E7374612B
:105440007465203D3D2050454E44494E47206F72C3
:1054500020535441424C45007120213D204E554C73
:105460004C000000880000206E6F207061636B6547
:10547000742071756575657320616C6C6F776564F8
:105480002100000069706164647220213D204E5546
:105490004C4C00003036010843616E2774206D6F5C
:1054A0007665206F76657220686561646572206933
:1054B0006E207061636B6574000000000146062079
:1054C00081F822003148007881F823002F48427883
:1054D000242042542D488278252042542B48C278FB
:1054E00026204254294802792720425427484279ED
:1054F0002820425440F2DC500884322081F82900F0
:10550000002070470246002070470146704708B5EA
:1055100004461EE06A4600211D480068FDF71DFE96
:105520009DF80000A8B912E02046FFF7EEFF0646FE
:1055300066B1214630462269904705463DB100BF1D
:1055400000BF304600F0F4FE002600E000E0EBE78C
:1055500000BFDFE710B5044600BF3CB900BF0DA394
:10556000642217A119A00DF041FA00BF00BF652009
:1055700084F82A006E212B2001551F4860611F48C6
:10558000A0612046FFF79AFF002010BD781100208F
:10559000800000207372635C4C5749505C6C7769E3
:1055A000702D312E342E315C7372635C6E657469BC
:1055B000665C65746865726E657469662E6300006A
:1055C0006E65746966213D4E554C4C0041737365A0
:1055D0007274696F6E2022257322206661696C6582
:1055E00064206174206C696E6520256420696E20DA
:1055F00025730D0A00000000D7510008055500086A
:1056000001460806000C40EA1120704700B502462A
:105610001046FFF7F5FF00BD0146080601F47F4282
:1056200040EA022001F47F0240EA122040EA1160C1
:10563000704700B503461846FFF7EEFF00BD10B5F2
:1056400008F084FD00F07CF800F0B2FB00F094FC60
:105650000BF0C4F906F0C6FC01F0F2FF06F0ECFB1B
:1056600010BD000070B5044600BFE34800688442E6
:1056700007D200BFE1A3F322E9A1EFA00DF0B6F934
:1056800000BF00BF00BFF7480068844207D300BFD7
:10569000DAA3F422F4A1E8A00DF0A8F900BF00BF3E
:1056A00000BF2079002807D000BFD4A3F522F5A1C0
:1056B000E1A00DF09BF900BF00BF00BF2088B0F54E
:1056C000C05F07DD00BFCDA3F822F5A1DAA00DF081
:1056D0008DF900BF00BF2088C74909684518AC4252
:1056E00015D0287998B9DF48006885420FD0F7486F
:1056F0000068A84201D1F548046028882080BE488F
:105700000088201A2988BC4A1268114448806088A1
:10571000B94909684618A64211D0307978B9EB48E2
:105720000068A04201D1E948066020883080B24874
:105730000088301A2188B04A12681144488070BD30
:1057400010B500BF00BFE2480068C01C20F0030095
:10575000A9490860084604684FF4C0502080002022
:10576000608020710846006800F5C050BD4908609F
:105770000120096808714FF4C050BA4909680880CF
:10578000B849096848809C480068D04908600121F0
:10579000D04808F05CFC00280AD000BF00BF97A3E7
:1057A0004FF49772CCA1A4A00DF020F900BF00BF68
:1057B00010BD70B5044614B900BF00BF70BD00BF76
:1057C00014F0030F08D000BF8CA34FF4A172C9A13D
:1057D00099A00DF00BF900BF00BF00BF864800681C
:1057E000844203D39F480068844208D300BF83A348
:1057F0004FF4A272C8A190A00DF0F8F800BF00BF4E
:105800007D480068844203D396480068844208D3E8
:1058100000BF00BFFEF76AF806463046FEF76AF89A
:10582000CCE70021AB4808F031FCA4F1080500BF2B
:10583000287940B900BF71A340F25512BCA17EA0E7
:105840000DF0D4F800BF00BF002028719F48006809
:10585000854201D29D4805602846FFF703FF9D4819
:1058600008F046FC00BFA9E72DE9F05F80460D4631
:10587000E81C20F0030085B20C2D00DA0C25B5F5EC
:10588000C05F02DD0020BDE8F09F00BF5A480068FD
:10589000804503D373480068804508D300BF57A3F1
:1058A0004FF4C472A7A164A00DF0A0F800BF00BF20
:1058B00051480068804503D36A480068804509D391
:1058C00000BF00BFFEF712F883465846FEF712F8F5
:1058D0004046D8E7A8F1080747480088381A1FFA59
:1058E00080F93888A0EB090008381FFA80FA00BF59
:1058F000554508DD00BF41A34FF4CD7297A14EA0DE
:105900000DF074F800BF00BF554501DD0020BAE777
:10591000554501D14046B6E700216E4808F0B6FB78
:105920003888354909684418207900BB208809F176
:10593000080129448EB265490968A14204D12E4963
:1059400009683144614A11602B4909688C190021AA
:1059500021712080A4F802903E802188B1F5C05FBB
:1059600004D02188244A126811444E8020E005F1B9
:10597000140050451CD809F10800284486B21E487E
:105980000068841951480068844201D24F4804607D
:105990000020207138882080A4F802903E80208862
:1059A000B0F5C05F04D020881349096808444680D8
:1059B000484808F09DFB404665E72DE9F04705465D
:1059C00015B90020BDE8F087E81C20F0030085B27F
:1059D0000C2D00DA0C25B5F5C05F01DD0020F1E7E4
:1059E00000213C4808F052FB3848008802490988E9
:1059F000401A86B263E10000900000207372635C7D
:105A00004C5749505C6C7769702D312E342E315CC7
:105A10007372635C636F72655C6D656D2E6300000D
:105A2000706C75675F686F6C65733A206D656D208B
:105A30003E3D2072616D0000417373657274696F41
:105A40006E2022257322206661696C656420617472
:105A5000206C696E6520256420696E2025730D0A0F
:105A60000000000094000020706C75675F686F6C28
:105A700065733A206D656D203C2072616D5F656EC7
:105A800064000000706C75675F686F6C65733A2026
:105A90006D656D2D3E75736564203D3D20300000C1
:105AA000706C75675F686F6C65733A206D656D2DFE
:105AB0003E6E657874203C3D204D454D5F53495AFC
:105AC000455F414C49474E45440000009800002086
:105AD0008C0000209C0000206661696C6564207465
